:400000000080002011000000050D0000050D000008B5044B1A6803F53F5302331A6000F091FE00BFFA46004010B5054C237833B9044B13B10448AFF300800123237010BDC4
:40004000B081FF1F00000000504C0000084B10B51BB108490848AFF300800848036803B910BD074B002BFBD0BDE81040184700BF00000000B481FF1F504C0000C880FF1FFA
:40008000000000002DE9F04F85B001F025F8424B1880424B1B88984202D21A1A40490A80984203D3C01AC0433D4B188001F008F83A4C394B1B882380394BB3F800A050460B
:4000C00001F030FC02460B460020364901F0CAFD354DC5E90001608801F034FC80468946D5E9002301F0E0FADFF8D4B0DBE9002301F0DCFA06460F46CBE90067D5E90023D2
:400100004046494601F0D0FAD4E9022301F080FCD4E9042301F0CAFA80468946D4E906233046394601F074FC02460B464046494601F0BCFA1D4CC4E90001D5E90023CDE933
:400140000201CDE90023524619491A4802F010FB0022194BD4E9000101F0EAFE18B100201549C4E900010022144B1049D1E9000101F0C0FE28B100204FF080410B4BC3E9F9
:4001800000010A4BD3E9000101F004FFC0B200F02FFF05B0BDE8F08F1283FF1FD080FF1F1083FF1F00A093404083FF1F3883FF1F584C00001483FF1F00005940000034406A
:4001C000D081FF1F10B501F075F9012807D001F06BF9012803D001F075F9012805D100205B495C4BC3E908013BE001F07BF9012807D001F07FF9012803D001F06BF901283A
:4002000005D100205449534BC3E9080129E0534B1B7A8BB901F066F901280DD001F06AF9012809D001F056F9012805D000204A49484BC3E9080114E0484B1B7A012B10D14A
:4002400001F038F901280CD001F02EF9012808D001F038F9012804D000203D493D4BC3E908013C4BD3E9080101F094FEC0B200F0D7FD67E000F068FE0D2801D00A2854D13D
:400280003648437A034400221A7342720D2234490C3002F09BFA00283DD13249324802F0AAFA002833D0053002F0BBF980B22B4B9885A0F151039BB2532B03D80422254B3D
:4002C0005A8013E04F2803D80322224B5A800DE0A5280BD9002001F0C7F9002001F0B8F9012001F0C7F9214800F05CFE204C1B4B9A8D2049204602F03BFA204600F052FE28
:400300001D4800F04FFE1D4800F04CFE1AE00022124B9A8516E00D221949134802F056FA80B900220D4B9A850CE00C4B5B7A1E2B05D80A4A591C51721344187302E000223E
:40034000064B5A7200F016FE002893D110BD00BF00006940D080FF1F00003440D081FF1F644C0000744C0000DC81FF1F7C4C00001483FF1F884C00008C4C0000904C00005A
:40038000B04C000070B5A2E000F082FF0D2802D00A2840F08B80B84890F82E300344002283F8302080F82E2000F13004B349204602F021FA0546B249204602F01CFA064641
:4003C000002D00F08480002800F08180E81C02F025F9303C01F0FEFD2065701D02F021F9A4F85400A74800F0DDFD04F1300000F0D9FDA54800F0D6FDB4F85420A2F15103EE
:400400009BB24A2B03D80422A04B5A8013E04F2A03D803229D4B5A800DE09B2A0BD9012001F016F9002001F025F9994800F0BAFD954800F0B7FD904B1C6D0021204602F03A
:40044000BBF8002843D18C4BB3F85430002B3ED09049204601F01CFF8F4901F011FE01F083FA8A4BC3E9080100228C4B01F060FD20B100208949854BC3E9080100224FF043
:4004800080438249D1E9080101F034FD28B100204FF080417D4BC3E908017C4BD3E9080101F078FDC0B200F0BBFC10E0724B93F82E301E2B07D8704A591C82F82E1013444C
:4004C00083F8300003E000226B4B83F82E2000F0F5FE00287FF458AF674BB3F85430002B4AD070BD00F030FD0D2801D00A2832D1614890F856300344002283F8582080F812
:4005000056200D226649583002F060F9A0BB654800F048FD644800F045FD5B4800F042FD02F0ECF8614B184003D5013860F001000130C0B2504B187218B9142000F070FC42
:4005400004E0012802D1C82000F06AFC4FF4FA6000F04AFE10E0484B93F856301E2B07D8454A591C82F85610134483F8580003E00022414B83F8562000F0FCFC0028B1D1AA
:400580003BE000F0F3FE0D2801D00A2824D13A4C94F878302344002283F87C2084F87820434800F0FFFC7C34204600F0FBFC364800F0F8FC3F49204602F0FEF818B91420F4
:4005C00000F02EFC19E03C493C4802F0F5F8A0B97F2000F025FC10E0274B93F878301E2B07D8254A591C82F87810134483F87C0003E00022204B83F8782000F0CDFE0028A0
:40060000BFD165E000F012FF0D2801D00A2825D1194C94F89C302344002283F8A02084F89C20274800F0BEFCA034204600F0BAFC154800F0B7FC1F49204602F0BDF818B9BE
:40064000C82000F0EDFB43E01B491E4802F0B4F800283DD17F2000F0E3FB39E0064B93F89C301E2B30D8044A591C82F89C10134483F8A0002CE000BFD081FF1FC04C0000D9
:40068000744C0000C44C00008C4C0000D080FF1FD44C00000000F8420000FC4200406F40644C0000F04C00002882FF1F01000080FC4C0000704C0000BC4C00004C82FF1F70
:4006C000084D00007082FF1F0022044B83F89C2000F0C2FE002895D170BD00BFD081FF1F08B56FE000F030FC0D2801D00A2858D1704890F8C0300344002283F8C42080F85B
:40070000C0200D226C49C43002F060F800283CD16A496B4802F06FF888B3053001F081FF80B2644B9885A0F151039BB2532B0AD80122604B83F8E4200422624B5A806248AE
:4007400000F030FC3EE04F280AD80022594B83F8E42003225B4B5A805C4800F023FC31E0A5282FD9002000F07FFF002000F070FF012000F07FFF564800F014FC22E04D4B8F
:4007800000229A8583F8E4201CE00D2251494C4802F01CF8B0B9474B00229A8583F8E42010E0444B93F8C0301E2B07D8414A591C82F8C010134483F8C40003E000223D4BD0
:4007C00083F8C02000F0D6FB00288BD1394B9B8D93B308BD00F0CAFD0D2801D00A281AD1344890F8E5300344002283F8E82080F8E5203949E83001F0DFFF18B9C82000F034
:400800000FFB19E03549364801F0D6FFA0B97F2000F006FB10E0274B93F8E5301E2B07D8244A591C82F8E510134483F8E80003E00022204B83F8E52000F0AEFD0028C9D187
:4008400032E000F0F3FD0D2801D00A281BD1194890F808310344002283F80C2180F808211D4900F5867001F0A7FF18B9142000F0D7FA19E019491B4801F09EFFA0B97F209C
:4008800000F0CEFA10E00B4B93F808311E2B07D8084A591C82F80811134483F80C0103E00022044B83F8082100F0D6FD0028C8D108BD00BFD081FF1F644C0000744C000036
:4008C0009482FF1FD080FF1F184D0000344D0000504D0000B04C0000704C0000BC4C0000B882FF1FDC82FF1F10B588B02C4B93F8E430002B42D001F001FF2A4A80FB0223EA
:40090000C218C317C3EBE213C3EB431203EBC203C31A981C01F016F8234CC4E9080101F039FBC0B200F07CFAD4E9080101F00AFB02461E49684601F01BFF684600F032FB09
:4009400001F0DCFE1A4B83FB0023A3EBE07303EB4303C31A4FF47A7403FB0444204600F043FC22461349684601F002FF684600F019FB00220A4B83F8E42008E006A1D1E953
:400980000001094BC3E908017F2000F049FA08B010BD00BFAFF300800000000000C05F40D081FF1F53309983D080FF1F704D0000565555557C4D000008B562B600F0F8FB87
:4009C00000F0BAFD00F00CFE00F0E0FD00F032FE00F0C4FB00F058FB164800F0CFFB164C204600F08FFD204600F0E0FD204600F0B3FD00F09BFA00F03DFC00F0A9FC00F0AF
:400A000007FD00F057FA7F2000F00AFA002002F0C7FD01F04BFE00F021FE10B9FFF7B2FCF9E700F01BFE0128F5D1FFF759FEFFF75BFFF0E785000000C5010000FEE700BF17
:400A4000F0B40022174611E050F82760F3B226F0FF0608E001EB420511F812406D78A5550132013BDBB2002BF4D10137262FEBD9F0BC7047064B1B78DBB203F00701054A23
:400A800011701B09013213704422034B1A707047CF0100496E5800407658004008B50A46002101F0FAFD08BD38B51925314B1D801823314A137002321580023213700232AD
:400AC000158002321370023215800232137040F21911023211800232137040F65F1227490A8002310B7002310A80254A13700222244B1A7008224FF040231A70032103F5C5
:400B000000731970204B1B78DBB220490B70204B1A8041F25122023B1A8000240CE01D4B1B7803F0010343EA440404F003044FF4F07000F0A5FD013D0DB1032CEFD115B968
:400B40000320FFF77BFF144B4FF480721A8007221A70002211490A704820023108701A700222033B1A700E4A137843F07F03137038BD00BF8040004082400040944000409D
:400B80009A4000400043004008010049A146004022420040254200400440004006400040A243004008B501F06DFD08BD38B572B63D4A137843F00403137000240CE03B4D4C
:400BC000630019194A0011462A44084691882858FFF764FF0134E4B2072CF0D900240BE03249A3001819420088188022416B006BFFF7D8FF0134E4B2002CF1D02C494FF018
:400C00009040FFF71DFF2B4A137843F0020313701032137843F002031370274C237843F040032370A2F58632513A137843F010031370082221492248FFF7B4FF082221490F
:400C40002148FFF7AFFF0A2220492148FFF7AAFF082220492048FFF7A5FF08221F492048FFF7A0FF08221F491F48FFF79BFF0A221E491F48FFF796FF1E4A137843F0080367
:400C800013701D4D61232B70FFF70EFF81232B7001221A4B1A70FFF7EDFE0E2221461848FFF780FF38BD00BFE8460040944D00009C00004803500140A0430040200F004872
:400CC00002510040280F0048C2510040300F0048105100403C0F004832510040440F0048425100404C0F004852510040540F00486051004022430040004800400400084008
:400D0000B043004008B501F091FC03680C2B00D1FEE7FEE708B5094B1A681044084BC31A802B02DC054B186005E001F07FFC0C2303604FF0FF32104608BD00BFF880FF1FDD
:400D40005083FF1F08B5104E104D16E029686B68AC68002204E051F8040B43F8040B0432A242F8D1E868002203E0002143F8041B04328242F9D11035013E002EE6D101F023
:400D80005BFCFFF719FEFEE7010000009850000008B5104A104B1A60104A136843F40073136000230AE0032B03D80D4A52F8231000E00C490C4A42F8231001332F2BF2D9E8
:400DC0000A4B1A780A4B1A70074A0A4B1A60FFF7EDFE08BD0004FA050CED00E014ED00E000000000050D00000080FF1FBC760040C080FF1F08ED00E0024A137843F08003C8
:400E00001370704774650040014B1870704700BF04650040014B1870704700BF44650040014B1870704700BF24650040014B1870704700BF84650040014B1878704700BF61
:400E400064650040014B1878704700BF5465004008B501E0FFF7F6FFFFF7EEFF10F0100FF8D108BD10B5114A137803F0C00343F0090313700E4C237843F001032370FF2004
:400E8000FFF7C2FFFF20FFF7C5FF7F20FFF7C8FF0020FFF7CBFF00F0FBFB237843F01003237000F0F9FBFFF7D3FF10BD746500409465004008B5054B1B7823B9FFF7D2FFFE
:400EC0000122024B1A70FFF797FF08BDFC82FF1F7222074B1A70202203331A7006225C3B1A70472210331A70002248331A7070478464004010B500F0CBFB04460A4A137870
:400F000043F0200313700332137843F010031370043A137843F01003137000F057F9204600F0BAFB10BD00BF9464004008B5054B1B7823B9FFF7CCFF0122024B1A70FFF781
:400F4000D9FF08BDFD82FF1F084B1B78DBB213F0200F06D0064A1078C0B213F01E0F02D17047002070470020704700BF6764004043640040044B1B7813F0200F01D0012053
:400F800070470020704700BF67640040034B1B7813F0040FFAD1024B18707047636400404765004038B5074B1B782BB938BDFFF7EDFF0134A4B201E005460024285D002883
:400FC000F5D138BDFD82FF1F024A137843F08003137070477A640040014B1870704700BF0A640040014B1870704700BF4A640040014B1870704700BF2A640040014B187098
:40100000704700BF8C640040014B1878704700BF6C640040014B1878704700BF5A64004008B501E0FFF7F6FFFFF7EEFF10F0100FF8D108BD08B5124A137803F0C00343F0B2
:40104000090313702032137843F001031370FF20FFF7C2FFFF20FFF7C5FF1C20FFF7C8FF0020FFF7CBFF00F013FB064A137843F01003137000F010FBFFF7D2FF08BD00BFDA
:401080007A6400409C64004008B5054B1B7823B9FFF7D0FF0122024B1A70FFF795FF08BDFF82FF1F024A137843F080031370704779650040014B1870704700BF896500404C
:4010C000014B1878704700BF69650040014B1880704700BF506A0040014B188880B27047906A0040014B1880704700BF106A004000F00300044B1A7802F0FC021A701A7839
:4011000010431870704700BF7965004008B501E0FFF7E2FFFFF7D4FF10F0080FF8D108BD08B54FF6FF70FFF7D1FF4FF6FF70FFF7D9FF00F0ADFA084A137843F01003137067
:4011400000F0AAFA0020FFF7D3FFFFF7DFFF0220FFF7B0FF08BD00BF9965004008B5054B1B7823B9FFF7DCFF0122024B1A70FFF799FF08BD0083FF1F704700BF014B1B6816
:401180001864704708ED00E04001C0B2014B1870704700BF00E400E00122014B1A60704700E100E00122014B1A60704780E100E008B5FFF7F7FF0448FFF7E0FF0720FFF73D
:4011C000E3FFFFF7E9FF08BD79110000054A137843F0020313701032137843F002031370704700BFA243004010B5044605E0084B186800F045FAA4F50044B4F5004FF6D88F
:40120000034B586800FB04F000F03AFA10BD00BFFC80FF1F7222084B1A70202203F201131A700622603B1A70472210331A7000224F331A70704700BF8564004010B500F01C
:4012400027FA04460A4A137843F02003137002F20112137843F010031370013A137843F01003137000F036F8204600F015FA10BD9564004008B5054B1B7823B9FFF7CAFF9D
:401280000122024B1A70FFF7D9FF08BD0183FF1F084B1B78DBB213F0200F06D0064A1078C0B213F01E0F02D17047002070470020704700BF6665004042640040044B1B7840
:4012C00013F0200F01D0012070470020704700BF66650040054A137843F0040313701032137843F004031370704700BFA24300407222084B1A70202203F207131A70062242
:40130000A3F5AE731A70472210331A70002251331A7070478164004010B500F0B9F904460A4A137843F02003137002F20712137843F010031370FB3A137843F010031370D5
:4013400000F096F8204600F0A7F910BD9164004008B5054B1B7823B9FFF7CAFF0122024B1A70FFF7D9FF08BD0383FF1F084B1B78DBB213F0200F06D0064A1078C0B213F0C3
:401380001E0F02D17047002070470020704700BF6865004041640040044B1B7813F0200F01D0012070470020704700BF686500407222084B1A70202203F201131A70062249
:4013C000A3F259131A70472210331A70002251331A7070478664004010B500F059F904460A4A137843F02003137002F20112137843F010031370F83A137843F01003137031
:4014000000F044F8204600F047F910BD9664004008B5054B1B7823B9FFF7CAFF0122024B1A70FFF7D9FF08BD0583FF1F084B1B78DBB213F0200F06D0064A1078C0B213F0AD
:401440001E0F02D17047002070470020704700BF6765004044640040044B1B7813F0200F01D0012070470020704700BF67650040054A137843F0080313701032137843F05A
:4014800008031370704700BFA2430040054A137843F0010313701032137843F001031370704700BFA2430040014B1878C009704731510040024B1878C0F34010704700BFD9
:4014C00031510040024B1878C0F3C000704700BF31510040024B1878C0F3C000704700BF01510040024B1878C0F34000704700BF01510040014B1878C00970474151004044
:40150000704700BF014B1B681865704708ED00E04001C0B2014B1870704700BF04E400E01022014B1A60704700E100E01022014B1A60704780E100E008B5FFF7F7FF044843
:40154000FFF7E0FF0720FFF7E3FFFFF7E9FF08BD01150000704700BF014B1B685865704708ED00E04001C0B2014B1870704700BF05E400E02022014B1A60704700E100E00A
:401580002022014B1A60704780E100E008B5FFF7F7FF0448FFF7E0FF0720FFF7E3FFFFF7E9FF08BD55150000704700BF014B1B689865704708ED00E04001C0B2014B187000
:4015C000704700BF06E400E04022014B1A60704700E100E04022014B1A60704780E100E008B5FFF7F7FF0448FFF7E0FF0720FFF7E3FFFFF7E9FF08BDA9150000704700BF4B
:40160000014B1B68D865704708ED00E04001C0B2014B1870704700BF07E400E08022014B1A60704700E100E08022014B1A60704780E100E008B5FFF7F7FF0448FFF7E0FF40
:401640000720FFF7E3FFFFF7E9FF08BDFD150000014B1870704700BF75650040014B1878704700BF75650040014B1870704700BF7F640040014B1870704700BF7E6400400D
:401680000230800803D000BF01380046FCD17047EFF3108072B6704780F31088704700BF81F0004102E000BF83F0004330B54FEA41044FEA430594EA050F08BF90EA020F38
:4016C0001FBF54EA000C55EA020C7FEA645C7FEA655C00F0E2804FEA5454D4EB5555B8BF6D420CDD2C4480EA020281EA030382EA000083EA010180EA020281EA0303362D0B
:4017000088BF30BD11F0004F4FEA01314FF4801C4CEA113102D0404261EB410113F0004F4FEA03334CEA133302D0524263EB430394EA050F00F0A780A4F10104D5F1200E13
:401740000DDB02FA0EFC22FA05F2801841F1000103FA0EF2801843FA05F359410EE0A5F120050EF1200E012A03FA0EFC28BF4CF0020C43FA05F3C01851EBE37101F000452D
:4017800007D54FF0000EDCF1000C7EEB00006EEB0101B1F5801F1BD3B1F5001F0CD349085FEA30004FEA3C0C04F101044FEA445212F5800F80F09A80BCF1004F08BF5FEA4C
:4017C000500C50F1000041EB045141EA050130BD5FEA4C0C404141EB010111F4801FA4F10104E9D191F0000F04BF01460020B1FA81F308BF2033A3F10B03B3F120020CDA24
:401800000C3208DD02F1140CC2F10C0201FA0CF021FA02F10CE002F11402D8BFC2F1200C01FA02F120FA0CFCDCBF41EA0C019040E41AA2BF01EB0451294330BD6FEA040434
:401840001F3C1CDA0C340EDC04F11404C4F1200220FA04F001FA02F340EA030021FA04F345EA030130BDC4F10C04C4F1200220FA02F001FA04F340EA0300294630BD21FA6E
:4018800004F0294630BD94F0000F83F4801306BF81F480110134013D4EE77FEA645C18BF7FEA655C29D094EA050F08BF90EA020F05D054EA000C04BF1946104630BD91EAC2
:4018C000030F1EBF0021002030BD5FEA545C05D14000494128BF41F0004130BD14F580043CBF01F5801130BD01F0004545F0FE4141F470014FF0000030BD7FEA645C1ABF72
:40190000194610467FEA655C1CBF0B46024650EA013406BF52EA033591EA030F41F4002130BD00BF90F0000F04BF0021704730B54FF4806404F132044FF000054FF0000138
:4019400050E700BF90F0000F04BF0021704730B54FF4806404F1320410F0004548BF40424FF000013EE700BF42004FEAE2014FEA31014FEA02701FBF12F07F4393F07F4FB7
:4019800081F06051704792F0000F14BF93F07F4F704730B54FF4607401F0004521F0004120E700BF50EA010208BF704730B54FF000050AE050EA010208BF704730B511F029
:4019C000004502D5404261EB41014FF4806404F132045FEA915C3FF4DCAE4FF003025FEADC0C18BF03325FEADC0C18BF033202EBDC02C2F1200300FA03FC20FA02F001FA17
:401A000003FE40EA0E0021FA02F11444C1E600BF70B54FF0FF0C4CF4E06C1CEA11541DBF1CEA135594EA0C0F95EA0C0F00F0DEF82C4481EA030621EA4C5123EA4C5350EA86
:401A4000013518BF52EA033541F4801143F4801338D0A0FB02CE4FF00005E1FB02E506F00042E0FB03E54FF00006E1FB03569CF0000F18BF4EF0010EA4F1FF04B6F5007FE5
:401A800064F5407404D25FEA4E0E6D4146EB060642EAC62141EA55514FEAC52040EA5E504FEACE2EB4F1FD0C88BFBCF5E06F1ED8BEF1004F08BF5FEA500E50F1000041EBE0
:401AC000045170BD06F0004646EA010140EA020081EA0301B4EB5C04C2BFD4EB0C0541EA045170BD41F480114FF0000E013C00F3AB8014F1360FDEBF002001F0004170BD8A
:401B0000C4F10004203C35DA0C341BDC04F11404C4F1200500FA05F320FA04F001FA05F240EA020001F0004221F0004110EBD37021FA04F642EB06015EEA430E08BF20EACF
:401B4000D37070BDC4F10C04C4F1200500FA04F320FA05F001FA04F240EA020001F0004110EBD37041F100015EEA430E08BF20EAD37070BDC4F1200500FA05F24EEA020EA9
:401B800020FA04F301FA05F243EA020321FA04F001F0004121FA04F220EA020000EBD3705EEA430E08BF20EAD37070BD94F0000F0FD101F00046400041EB010111F4801FCE
:401BC00008BF013CF7D041EA060195F0000F18BF704703F00046520043EB030313F4801F08BF013DF7D043EA0603704794EA0C0F0CEA135518BF95EA0C0F0CD050EA4106E3
:401C000018BF52EA4306D1D181EA030101F000414FF0000070BD50EA410606BF1046194652EA430619D094EA0C0F02D150EA013613D195EA0C0F05D152EA03361CBF104659
:401C400019460AD181EA030101F0004141F0FE4141F470014FF0000070BD41F0FE4141F4780170BD70B54FF0FF0C4CF4E06C1CEA11541DBF1CEA135594EA0C0F95EA0C0FD9
:401C800000F0A7F8A4EB050481EA030E52EA03354FEA013100F088804FEA03334FF0805545EA131343EA12634FEA022245EA111545EA10654FEA00260EF000419D4208BF96
:401CC000964244F1FD0404F5407402D25B084FEA3202B61A65EB03055B084FEA32024FF480104FF4002CB6EB020E75EB030E22BFB61A754640EA0C005B084FEA3202B6EB16
:401D0000020E75EB030E22BFB61A754640EA5C005B084FEA3202B6EB020E75EB030E22BFB61A754640EA9C005B084FEA3202B6EB020E75EB030E22BFB61A754640EADC00A8
:401D400055EA060E18D04FEA051545EA16754FEA06164FEAC30343EA52734FEAC2025FEA1C1CC0D111F4801F0BD141EA00014FF000004FF0004CB6E711F4801F04BF014308
:401D80000020B4F1FD0C88BFBCF5E06F3FF6AFAEB5EB030C04BFB6EB020C5FEA500C50F1000041EB045170BD0EF0004E4EEA113114EB5C04C2BFD4EB0C0541EA045170BDA4
:401DC00041F480114FF0000E013C90E645EA060E8DE60CEA135594EA0C0F08BF95EA0C0F3FF43BAF94EA0C0F0AD150EA01347FF434AF95EA0C0F7FF425AF104619462CE710
:401E000095EA0C0F06D152EA03353FF4FDAE1046194622E750EA410618BF52EA43067FF4C5AE50EA41047FF40DAF52EA43057FF4EBAE12E74FF0FF3C06E000BF4FF0010CBC
:401E400002E000BF4FF0010C4DF804CD4FEA410C7FEA6C5C4FEA430C18BF7FEA6C5C1BD001B050EA410C0CBF52EA430C91EA030F02BF90EA020F0020704710F1000F91EA64
:401E8000030F58BF994208BF90422CBFD8176FEAE37040F0010070474FEA410C7FEA6C5C02D150EA013C07D14FEA430C7FEA6C5CD6D152EA033CD3D05DF8040B704700BFE6
:401EC0008446104662468C461946634600E000BF01B5FFF7B7FF002848BF10F1000F01BD4DF808EDFFF7F4FF0CBF012000205DF808FB00BF4DF808EDFFF7EAFF34BF0120CF
:401F000000205DF808FB00BF4DF808EDFFF7E0FF94BF012000205DF808FB00BF4DF808EDFFF7CEFF94BF012000205DF808FB00BF4DF808EDFFF7C4FF34BF012000205DF88C
:401F400008FB00BF4FEA410212F5001215D211D56FF47873B3EB625212D94FEAC12343F0004343EA505311F0004F23FA02F018BF404270474FF00000704750EA013005D1A9
:401F800011F0004008BF6FF0004070474FF00000704700BF4A0011D212F5001211D20DD56FF47873B3EB62520ED44FEAC12343F0004343EA505323FA02F070474FF0000019
:401FC000704750EA013002D14FF0FF3070474FF0000070474FEA4102B2F1E04324BFB3F5001CDCF1FE5C0DD901F0004C4FEAC0024CEA5070B2F1004F40EB830008BF20F036
:402000000100704711F0804F21D113F13872BCBF01F00040704741F480114FEA5252C2F11802C2F1200C10FA0CF320FA02F018BF40F001004FEAC1234FEAD32303FA0CFC58
:4020400040EA0C0023FA02F34FEA4303CCE77FEA625307D150EA01331EBF4FF0FE4040F44000704701F0004040F0FE4040F40000704700BF80F0004002E000BF81F00041B1
:4020800042001FBF5FEA410392EA030F7FEA226C7FEA236C6AD04FEA1262D2EB1363C1BFD218414048404140B8BF5B42192B88BF704710F0004F40F4000020F07F4018BF69
:4020C000404211F0004F41F4000121F07F4118BF494292EA030F3FD0A2F1010241FA03FC10EB0C00C3F1200301FA03F100F0004302D5494260EB4000B0F5000F13D3B0F110
:40210000807F06D340084FEA310102F10102FE2A51D2B1F1004F40EBC25008BF20F0010040EA03007047490040EB000010F4000FA2F10102EDD1B0FA80FCACF1080CB2EB9A
:402140000C0200FA0CF0AABF00EBC25052421843BCBFD0401843704792F0000F81F4000106BF80F400000132013BB5E74FEA41037FEA226C18BF7FEA236C21D092EA030F5C
:4021800004D092F0000F08BF0846704790EA010F1CBF0020704712F07F4F04D1400028BF40F00040704712F100723CBF00F50000704700F0004343F0FE4040F40000704714
:4021C0007FEA226216BF08467FEA23630146420206BF5FEA412390EA010F40F4800070474FF0000304E000BF10F0004348BF40425FEA000C08BF704743F0964301464FF0D8
:4022000000001CE050EA010208BF70474FF000030AE000BF50EA010208BF704711F0004302D5404261EB41015FEA010C02BF84460146002043F0B64308BFA3F18053A3F5DC
:402240000003BCFA8CF2083AA3EBC25310DB01FA02FC634400FA02FCC2F12002BCF1004F20FA02F243EB020008BF20F00100704702F1200201FA02FCC2F1200250EA4C00B8
:4022800021FA02F243EB020008BF20EADC7070474FF0FF0C1CEAD0521EBF1CEAD15392EA0C0F93EA0C0F6FD01A4480EA010C400218BF5FEA41211ED04FF0006343EA50106E
:4022C00043EA5111A0FB01310CF00040B1F5000F3EBF490041EAD3715B0040EA010062F17F02FD2A1DD8B3F1004F40EBC25008BF20F00100704790F0000F0CF0004C08BF09
:4023000049024CEA502040EA51207F3AC2BFD2F1FF0340EAC250704740F400004FF00003013A5DDC12F1190FDCBF00F000407047C2F10002410021FA02F1C2F1200200FAB5
:4023400002FC5FEA310040F1000053EA4C0308BF20EADC70704792F0000F00F0004C02BF400010F4000F013AF9D040EA0C0093F0000F01F0004C02BF490011F4000F013B10
:40238000F9D041EA0C018FE70CEAD15392EA0C0F18BF93EA0C0F0AD030F0004C18BF31F0004CD8D180EA010000F00040704790F0000F17BF90F0004F084691F0000F91F06E
:4023C000004F14D092EA0C0F01D142020FD193EA0C0F03D14B0218BF084608D180EA010000F0004040F0FE4040F40000704740F0FE4040F4400070474FF0FF0C1CEAD05267
:402400001EBF1CEAD15392EA0C0F93EA0C0F69D0A2EB030280EA010C49024FEA402037D04FF0805343EA111143EA10130CF000408B4238BF5B0042F17D024FF4000C8B425F
:4024400024BF5B1A40EA0C00B3EB510F24BFA3EB510340EA5C00B3EB910F24BFA3EB910340EA9C00B3EBD10F24BFA3EBD10340EADC001B0118BF5FEA1C1CE0D1FD2A3FF632
:4024800050AF8B4240EBC25008BF20F0010070470CF0004C4CEA50207F32C2BFD2F1FF0340EAC250704740F400004FF00003013A37E792F0000F00F0004C02BF400010F40B
:4024C000000F013AF9D040EA0C0093F0000F01F0004C02BF490011F4000F013BF9D041EA0C0195E70CEAD15392EA0C0F08D142027FF47DAF93EA0C0F7FF470AF084676E7AB
:4025000093EA0C0F04D14B023FF44CAF08466EE730F0004C18BF31F0004CCAD130F000427FF45CAF31F000437FF43CAF5FE700BF4FF0FF3C06E000BF4FF0010C02E000BF12
:402540004FF0010C4DF804CD4FEA40024FEA41037FEA226C18BF7FEA236C11D001B052EA530C18BF90EA010F58BFB2EB030088BFC81738BF6FEAE17018BF40F00100704770
:402580007FEA226C02D15FEA402C05D17FEA236CE4D15FEA412CE1D05DF8040B704700BF844608466146FFE70FB5FFF7C9FF002848BF10F1000F0FBD4DF808EDFFF7F4FF83
:4025C0000CBF012000205DF808FB00BF4DF808EDFFF7EAFF34BF012000205DF808FB00BF4DF808EDFFF7E0FF94BF012000205DF808FB00BF4DF808EDFFF7D2FF94BF012025
:4026000000205DF808FB00BF4DF808EDFFF7C8FF34BF012000205DF808FB00BF002100F027BF0A22002100F0B1BF0000014B1868704700BF6C81FF1F0E4B70B51E460E4CF4
:402640000025E41AA410A54204D056F8253098470135F8E702F00EFD084B094C1E46E41AA4100025A54204D056F8253098470135F8E770BD80500000805000008050000062
:402680008850000010B5431E0A44914204D011F8014B03F8014FF8E710BD03460244934202D003F8011BFAE77047000038B5124B05461C68A36BD3B9182001F0B9FA43F232
:4026C0000E33A06303804AF6CD33438041F2342383804EF26D63C3804DF6EC630381052343810B23838101220023C0E90423A36B00221D615A6138BD6C81FF1F194B10B554
:402700001C68A36BD3B9182001F092FA43F20E33A06303804AF6CD33438041F2342383804EF26D63C3804DF6EC630381052343810B23838101220023C0E90423A16B0A4C3B
:402740000B6948695C43094A02FB0040A3FB02230132034443F10003C1E9042323F0004010BD00BF6C81FF1F2DF451582D7F954C0EB400B54FF402719CB0ADF814106FF0DE
:402780000041049107914FF6FF711DAB02900690084853F8042BADF81610006802A9019301F04AFF029B00221A701CB05DF804EB03B070476C81FF1F10F8012B11F8013B49
:4027C000012A28BF9A42F7D0D01A704730B582B1451E013915F8013F11F8014FA34206D1EC431444E04201D0002BF3D11C46181B30BD104630BDF0B5037863B90B78002B54
:4028000018BF0020F0BD15F8012F62B114F8017F30469742F7D00346461C007810B14D1E5C1EF0E7F0BD1846F0BD2DE9F0410F46904601F0CBFC04460D46B8F1000F11D04A
:40284000C7F30A53C3F16B03002B0BDD1B0503F17F55002405F5401522462B46FFF7D8F8BDE8F08120462946BDE8F081000000002DE9F04F82460C469DB0002313921893E2
:402880004FF000084FF000091791179B1A780D2A05D8092A13D2002A00F0AD8112E02B2A04D02D2A04D0202A0CD108E0002200E001220C925A1C17925B782BB99BE101338B
:4028C0001793E2E700230C93179D2B78302B5CD16B78582B01D0782B4CD10C9BA84A019318AB009317A919AB504600F0B8FE10F00706044600F08585062E05D101350023D6
:4029000017950C9300F07DBD189A3AB135211AA801F043FD1899504601F0C7F9062E22D8DFE806F0040D08181D0D04004FF00009C84618E0DDF86880DDF86C9013E01B9B75
:40294000199A23F4801302F23342DDF8688043EA025908E0DFF82C924FF0000803E06FF000494FF0FF38210740F14B8549F0004900F047BD179B5A1C17925B78302BF9D020
:40298000002B00F03E85012300E000230593179B0A22069300239B4602930493179D2E78A6F13003D9B2092911D8BBF1080FD5BF0499029902FB013302FB013305F101051C
:4029C000D4BF049302930BF1010B1795E6E7504601F02AF90768504601F026F9006802F0CBF8394602462846FFF7F0FE074628B1002033465D46024601465AE0504601F0F0
:402A000013F9006802F0B8F8179B1A1817921B5CBBF1000F45D15846302B05D1179B01305A1C17925B78F7E7A3F13102082A46D8179A0692024600200546303B00F10101B8
:402A400029D00A44294605EB000C0A2661450FD0013101F1FF3EBEF1080F03DC049F77430497F3E71029DEBF029F77430297EDE72844082800F1010505DC04980A2101FB42
:402A80000033049306E0102DDFBF02980A2101FB003302930021179B581C17905B78084602E05D4638463A46A3F130010929C4D90121652B01D0452B4FD16DB904E0652B2F
:402AC00040F0AD840022012128B9059B002B00F09280054600E00025179C631C179363782B2B06D02D2B02D00026039606E0012300E000230393A31C1793A378A3F1300676
:402B0000092E29D8302B04D1179B5E1C17965B78F8E7A3F13106082E1FD8A3F1300E179B1F46179B5E1C17965B78A3F1300CBCF1090F05D80A2606FB0E3EAEF1300EF0E772
:402B4000F61B082E44F61F6602DC7645A8BF7646039F1FB1764201E017940026002D52D1002840F04E84059A002A40F04A84002941D14E2B20D007DC492B0AD03BE000BFC7
:402B8000F04D00000000F07F692B02D06E2B13D031E0AA4917A800F093FF60B3179BA849013B17A8179300F08BFF10B9179B01331793DFF8A8921AE0A24917A800F080FFF0
:402BC000C8B1179B1B78282B0FD11AAA9E4917A800F089FF052808D11B9BDDF8688043F0FF4949F4E00900F00CBCDFF874924FF0000800F006BC139B1794002B00F00C8456
:402C000000230C93FFE32C46BBF1000F08BFAB460498102DA8BF1024B71AFEF783FE092C8046894613DD894B03EBC40353E91223FEF7EEFE804602988946FEF773FE0246DE
:402C40000B4640464946FEF731FD804689460F2D33DC002F00F0D58322DD162F07DC7B4D424605EBC7014B46D1E9000113E0C5F125039F4221DC754CC5F10F0504EBC5010A
:402C80007D1B4246D1E900014B4604EBC504FEF7BFFED4E90023FEF7BBFE80468946B0E317F1160F09DB694D4046A5EBC703D3E900234946FEF7D6FFEFE72C1B3C44002CE0
:402CC0005DDD14F00F010AD0604B424603EBC101D1E900014B46FEF79BFE8046894634F00F0400F0C180B4F59A7F0FDD4FF0000BCDF808B0CDF814B0CDF810B02223CAF868
:402D00000030DFF858914FF0000889E14046494600234F4E24110293012C0CDDE20704D5D6E90023FEF774FE0123029A6410013202920836F0E70BB180468946444B029AA6
:402D4000A9F1547903EBC201D1E9000142464B46FEF75EFE21F0004389460A461B0D3D491B058B428046C1D8A1F580118B4286BFDFF8F0904FF0FF3802F1547974E073D04C
:402D8000644214F00F020AD0304B404603EBC2034946D3E90023FEF765FF80468946241162D01F2C08DD4FF0000BCDF808B0CDF814B0CDF810B02CE14046494614F0100FBD
:402DC0000CBF00236A23244E03930023002C09DDE20704D5D6E90023FEF71AFE012364100836F3E70BB180468946039BEBB1C9F30A53C3F16B03002B494616DD1F2B0EDD12
:402E0000342BDEBF203B4FF0FF3202FA03F34FF00008CCBF4FF05C7903EA010905E04FF0FF3202FA03F303EA08080022002340464946FFF755F80028B5D117E0E44D000045
:402E4000E74D0000ED4D0000D04D0000404F0000185000000000A07C084E00000000F07F0000F8FFFFFFEF7F00230393049B5A46009306992B46504600F069FF0590002846
:402E80003FF434AF002FC7F10003A8BF00230D934FF0000B27EAE7731293CDF808B0059B5046596800F0CCFE049000283FF426AF059B0C301A6903F10C0102329200FFF780
:402EC000E1FB1AAB019319AB009342464B465046CDE9088901F0EBF9189000283FF40EAF0121504600F0BEFF029000283FF406AF199B0399002BACBF0D9A129A1A9CACBF5A
:402F0000D618D21AA3EB01032344B14903F1FF33ACBF129A0D9E8B42C4F1360480F28580C91A1F29C8BFAB4D4FF00107D4BF07FA01F3ED1AA4EB0104D9BF0793002507FA3D
:402F400005F507973719039BBE4214441C443346A8BF3B46A342A8BF2346002BC2BFFF1AE41AF61A0D9B002B63D1002F7ADC129B002B40F08180002C00F38880002E00F34D
:402F80008F80049A1899504601F0C1F8834600283FF4B4AEC3680024C4600299069301F09AF8A04280F28B80069B002B40F00282B8F1000F40F0FE81C9F31303002B40F050
:402FC000F98129F000431B0D1B05B3F1D66F40F2F181DBF81430002B6CD059460122504601F028F80299834601F075F8002840F3E18129F00043039A1B0D1B05002A00F065
:403000008D80B3F1D66F00F38980B3F15C7F00F3D38122234FF000084FF00009CAF80030059B002B40F0D981EBE101230025079388E71A460299504600F0AEFF02900028B7
:403040003FF45CAE0146189A504600F014FF069000283FF453AE1899504600F026FE069B189382E73A461899504600F0E3FF189000287FF47CAF41E6129A0499504600F082
:403080008BFF049000287FF476AF37E622460499504600F0CFFF049000287FF46FAF2DE632460299504600F0C5FF029000287FF468AF23E6DBF81030012B8EDC7AE161D17C
:4030C000069AC9F3130322B343494A468B422ED1039B414663B1414B1340B3F1D46F07D81B0DC3F16B034FF0FF3000FA03F301E04FF0FF338B421AD139498A4202D10133BC
:403100003FF4FCAD354B4FF00008134003F5801950E163B9B8F1000F09D16AE7A3F580136FEA13594FF0FF386FEA095942E115B115EA090F02E0079B13EA080F00F03A8174
:40314000069B039A4046494653B1FFF76EFB02460B46DDE90801FEF7A9FA8046894629E1FFF763FB02460B46DDE90801FEF79CFA0022002380468946FEF7B2FE00287FF499
:4031800048AF17E10299584601F0DFF800224FF0804306460F46FEF7B7FE00283FD0069B13B100260F4F10E0B8F1000F03D1C9F313033BB91AE0B8F1010F03D1B9F1000F0E
:4031C0003FF427AF084F00260024064D3CE000BF02FCFFFFE2FBFFFFFFFF0F000000F07FFFFFEF7F0000F03F0000F0BF00229A4B30463946FEF77EFE40B90022974B30467A
:403200003946FEF705FC04460D4601E0069C934D05F1004314941593DDE9146714E08F4B002230463946FEF7F3FB069B04460D4623B901F100430E900F9303E002460B467C
:40324000CDE90E23DDE90E6729F000431B0D1B050793079A824B9A422BD1DDE90823A9F1547940464946CDE90A2300F0AFFF02460B4630463946FEF7CBFB42464B46FEF763
:4032800015FA21F000431B0D764A1B05934280460CD9754B0B9A9A4203D10A9B01333FF42DADDFF8C4914FF0FF3872E001F1547939E0039B3BB3079BB3F1D46F23D85EA34B
:4032C000D3E9002320462946FEF71EFEB8B129462046FEF75FFE002808BF0120FEF722FB069B04460D4623B901F100431090119303E002460B46CDE91023DDE91067079A81
:4033000007F1D6639F1ADDE9080100F05FFF02460B4630463946FEF77BFBDDE90823FEF7C5F980468946039B9BBB29F000431B0D079A1B059A424E462BD129462046FEF7E5
:4033400001FEFEF7FFFA0B46024629462046FEF7ABF9069B04460D462BB9B8F1000F02D1C9F313067EB136A3D3E9002320462946FEF7C0FD88BB34A3D3E90023204629469B
:40338000FEF7D6FD04E032A3D3E90023FEF7B2FD18BB1899504600F088FC0499504600F084FC0299504600F080FC5946504600F07CFC74E5039B83B12C4B40460B930023B5
:4033C0000A934946DDE90A23FEF722FB8046894619B910B92223CAF800301899504600F064FC0499504600F060FC0299504600F05CFC0599504600F058FC5946504600F009
:4034000054FC139B13B1179B139A13600C9B1BB1424609F1004307E042464B4604E000252A460121FFF747BB104619461DB0BDE8F08F00BFAFF300800000C0FFFFFFDF41C9
:403440009535A094FFFFDF3F35E5AF350000E03F9535A094FFFFCF3F0000F03F0000E03F0000E07FFFFF9F7CFFFFEF7F00005039024B0A4601461868FFF7FAB96C81FF1F38
:403480002DE9F0470F4680463F48D0F800903D4615F8014B09EB0400407800F0080000F0FF0608B12F46F2E72D2C03D1BD1C7C78012603E02B2C04BF7C78BD1C13B1102B5B
:4034C0000AD15BE0302C57D1287800F0DF0058284DD16C7810230235002E14BF4FF0004C6FF0004CBCFBF3FA0027384603FB1ACC09EB040E9EF801E01EF0040F01D0303C98
:403500000BE01EF0030E1BD0BEF1010F0CBF4FF0370E4FF0570ECEEB0404A34210DDB7F1FF3F0AD0504506D801D1644503DC03FB0040012701E04FF0FF3715F8014BD7E7F1
:403540007B1C0CD1002E4FF0220314BF4FF000406FF00040C8F800302AB9BDE8F08706B1404272B107B1691E1160BDE8F0873024002BB1D10823AFE70A23ADE7302CA3D0EB
:40358000AAE7BDE8F08700BF7081FF1F13460A46014602480068FFF773BF00BF6C81FF1F13B5084B044600221868694600F02AFB0028BCBF4FF0FF330093009804B12060BD
:4035C00002B010BD6C81FF1FF0B506694B11B34200F1140527DA11F01F0105EB860605EB830201D1294616E0141D55F823202B46C1F1200ECA40B44209D2276807FA0EF706
:403600003A4343F8042B54F8042BCA40F3E71A6052B1043308E0B2420B4605D252F8043B41F8043BF7E72B465B1B9B10036103B94361F0BDA0F13003092B01D820380AE097
:40364000A0F16103052B01D8473804E0A0F14103052B02D82738C0B27047002070472DE9F04F8BB08A4690460693029000F0DCFA03684FF0000B1846039301F07DFA039BD5
:403680000190034413F8013C0793DAF8003002331F4613F8010B302802D10BF1010BF7E7FFF7C8FF0446E0B9019A03993846FFF78DF8002834D1019BF85CFE18FFF7BAFFDA
:4036C00080B3334618781F46302803F10103F9D0FFF7B0FFB0FA80F534466D094FF0010B01E000252C463A46164630780132FFF7A1FF0028F8D1019A03993046FFF766F85A
:4037000050B954B9019BF4182246164630780132FFF790FF0028F8D134B1A41BA40003E03E4600E0044601253378502B01D0702B2AD173782B2B08D02D2B03D0711C4FF01A
:40374000000905E04FF0010901E04FF00009B11C0878FFF76FFF431EDBB2182B14D8A0F1100211F8010FFFF765FF431EDBB2182B04D80A2303FB0202103AF2E7B9F1000FED
:4037800000D05242144400E03146CAF800102DB1BBF1000F14BF002006207CE12946F31B013B072B02DD01315B10FAE7029800F047FA4FF000090546CB46019B00F1140AB3
:4037C000C3F10103CDF810A00893B7422FD2731E0593079A16F8013C93420BD0BBF1200F16D1049BC3F8009004334FF000090493CB460DE0059B089A13449F42EED81846E4
:40380000019A03990993FEF7E1FF099B68B1E5E716F8010CFFF70EFF00F00F0000FA0BF0059B49EA00090BF1040B1E46CDE7049840F8049BCAEB000080102861470148462F
:4038400000F0C3FAD8F80060381AB04226DD871B3946284600F0BBFDC8B17B1E591103F01F024FF001095AF8211009FA02F20A420ED04B4502DC4FF0020909E0B91E28468A
:4038800000F0A5FD0028F6D04FF0030900E0814639462846FFF798FE3C440CE009DA371A29463A46029800F0C5FB0546E41B00F1140A4FF00009D8F808309C4208DD02983E
:4038C000294600F0F2F9149A00231360A320E2E0D8F80400844253DA041BA6422EDCD8F80C30022B1AD0032B1CD0012B1DD1A6421BD1012E0BDCD8F80430069A6220136003
:4039000001232B61CAF80030149B1D60C3E0711E284600F05CFD0028EDD106E0159B002BE9D002E0159B002BE5D10298294600F0BCF9149A002313605020ACE0671EB9F1E0
:40394000000F06D13FB13946284600F040FD814601E04FF001097A11012307F01F0703FA07F75AF8223021461F42284618BF49F00209361BFFF728FE0227D8F8044000E020
:403980000127B9F1000F00F08180D8F80C30022B0ED0032B10D0012B76D119F0020F73D0DAF8000049EA000919F0010F07D16BE0159BC3F101031593159B002B64D0D5F80A
:4039C00010A005F114034FEA8A0903EB090100201A68B2F1FF3F02D001321A6020E043F8040B9942F4D8AB689A4512DB69680298013100F025F983462A6905F10C01023236
:403A000092000C30FEF73EFE2946029800F04DF95D462B695A1C2A6105EB830301225A61022F05F1140211D1D8F80030013B9E4227D17111012306F01F0603FA06F652F885
:403A400021301E420CBF022701271AE02B699A450ADA01212846FFF7B7FDD8F8083001349C423FF72CAF0BE016F01F0608D0914459F8040C00F0A9F9C6F12006B042E8DB7A
:403A8000012747F0200701E047F010073846149B1D60069B1C600BB0BDE8F08FC2F10802920070B5C2F120064368056803FA06F42C43D340046040F8043F8842F4D370BD30
:403AC00030B5036811F8014B01334CB11A78A2F14105192D98BF2032A242F3D0002030BD0360012030BD0B682DE9F04F5E1102EB860613F01F0318BF0436351F17460022B8
:403B00008246A8462C46914685B0D0F800B0019346F8042C00921BF8011F00293CD0084603920291FFF786FD039A00BB0299202916D8009B9945EEDD444505D2072A03DC10
:403B400041462046FFF7AAFFBC4223D90023A4F1040844F8043CCDF8009044461A46DAE7292948D10BF10103CAF8003014E00132082A09F1010906DDBC42CCD9002344F8E0
:403B8000043C0122043C216800F00F0040EA01102060C0E70822BEE7B9F1000F2BD0444505D2072A03DC41462046FFF777FFBC420CD93B4654F8042BA54243F8042BF9D231
:403BC000002243F8042B9D42FBD20BE0019B4BB1C3F120024FF0FF33D34056F8042C134046F8043C2B6843B9BD4202D101232B6003E0043DF6E7042000E0052005B0BDE8CD
:403C0000F08F000038B5074C0023054608461146236001F015F8431C02D1236803B12B6038BD00BF4883FF1F004870477481FF1F024B0146186800F047BC00BF6C81FF1FB5
:403C400070B5456A04460E463DB91020FFF7F0FF6062456085600560C560656AEB6843B1636ADB6853F8260078B1026843F8262017E021220421204600F0CBFB636AE860B6
:403C8000DB68002BECD1002070BD012101FA06F56A1D9200204600F0BCFB0028F3D04660856000230361C36070BD70B5446A06460D463CB91020FFF7BBFF70624460846060
:403CC0000460C4603DB1736A6A68DB6853F82210296043F8225070BD2DE9F04106460C460D691F4601F1140E0023DEF80000013381B202FB0171000C0F0C02FB007089B20A
:403D000001EB00419D424FEA10474EF8041BECDCD7B1A3689D4212DB616830460131FFF78FFF8046226904F10C01023292000C30FEF7A8FC21463046FFF7B7FF444604EB76
:403D4000850301355F6125612046BDE8F0812DE9F843064615461F46092208330C4693FBF2F3002101229A4202DA52000131FAE73046FFF765FF089B092D43614FF001034A
:403D8000036111DD04F10908C1462C4419F8013B0146303B0A223046FFF79EFFA145F5D108EB0504083C01E00A3409252D1B63199F4208DD14F8013B0146303B0A223046A1
:403DC000FFF78AFFF3E7BDE8F883030C1B0413B90004102300E0002310F07F4F04BF0002083310F0704F04BF0001043310F0404F04BF80000233002803DB420003D5581CF3
:403E000070471846704720207047036813F007020BD0D90722D49A074BBF5B089B08036003604CBF01200220704799B209B91B0C102213F0FF0F04BF1B0A0832190704BF9F
:403E40001B090432990704BF9B080232D90702D45B0805D00132036010467047002070472020704710B50C460121FFF7E9FE01224461026110BD2DE9F74F14460A6923698C
:403E800088469A42BEBF0B46A0461C46D8F81070D4F81090D8F80830D8F8041007EB09069E42C8BF0131FFF7CBFE00F114052B4605EB860C0022634502D243F8042BFAE75B
:403EC00004F1140208F1140102EB890301EB87070093009B0192934257D9B2F800B0BBF1000F23D08946AE464FF0000859F8044BBEF800A0A3B20BFB03A34FEA144ADEF87A
:403F0000004043444FEA14480BFB0A84F24604EB13449BB243EA04434F454FEA14484AF8043B01D9D646E1E7CEF80480019B0432B3F802A0BAF1000F21D02C4689462B6802
:403F40004FF00008B9F800E0B4F802B09BB20AFB0EBEA346F04443EA08434BF8043B59F8043BB4F804E01B0C0AFB03E34F4503EB18434FEA134801D95C46E3E763600435F1
:403F8000A7E75CF8043D13B9013E002EF9DC066103B0BDE8F08F00002DE9F843154612F0030206460F4607D0214C013A002354F82220FFF791FE0746AD1036D0746A3CB9A6
:403FC0001020FFF735FE7062446084600460C460D6F82480D8F808404CB940F271213046FFF740FF04460023C8F8080003604FF00008EB070AD5394622463046FFF73BFF4B
:40400000814639463046FFF750FE4F466D100CD0206808B10446ECE7224621463046FFF72AFF2060C0F80080F4E73846BDE8F883085000002DE9F0470C46074691462669F5
:404040004FEA621A56444968A368751CAB4202DA01315B00FAE73846FFF7F2FD002380461A4600F11401534503DA41F823200133F9E72AEAEA73206901EB830319F01F0919
:4040800004F1140101EB800E14D0C9F1200C002208689A4600FA09F0024343F8042B51F8042B8E4522FA0CF2F2D8CAF8042042B1B51C06E0043B51F8042B8E4543F8042FE7
:4040C000F9D8013D3846C8F810502146FFF7EDFD4046BDE8F08703690A6910B59B1A11D192001430143183180A4453F8044D52F8041D8C4202D007D3012010BD9842F4D3DB
:40410000002010BD184610BD4FF0FF3010BD2DE9F8430C460746114620461546FFF7DBFF061E08D131463846FFF78AFD012303614661BDE8F883BCBF23462C4638466168F9
:40414000BABF1D4601260026FFF77AFD2B69C660266905F1140904F1140101EB860709EB830800F114054FF0000C51F8042B59F8044B93B29C44A3B2240CC3EB0C03C4EBC8
:40418000124202EB23429BB24FEA224CC84543EA02428E4645F8042BE7D8BE450ED25EF8041B8AB26244131403EB114392B242EA03424FEA234C45F8042BEEE755F8043D19
:4041C0000BB9013EFAE70661BDE8F883104B0B40A3F15073002B02DD0020194670475B421B15132B4FF000004FF0000104DC4FF4002242FA03F17047143B1E2B4FF0010287
:40420000CEBF1346C3F11F0302FA03F3184670470000F07FF8B5056900F1140606EB850555F8044C2F1F2046FFF7CFFDC0F120030A280B6014DCC0F10B0E24FA0EF1BE4250
:4042400041F07F5334BF55F8081C0021153004FA00F021FA0EF143F4401340EA010223E0BE423ABFA5F1080755F8081C00210B3815D08440C0F1200544F07F5444F440142A
:40428000B74221FA05FE44EA0E038CBF57F8044C002401FA00F0EC4040EA040204E00A4644F07F5343F4401310461946F8BD2DE9F3411C4601219046089E099DFFF7C0FC83
:4042C000C4F31302C4F30A5407460CB142F480120192B8F1000F19D002A840F8088DFFF794FD009B48B1019AC0F1200102FA01F10B43C2407B61019200E07B61019B002BA8
:4043000014BF02210121BB61396107E001A8FFF77CFD019B01217B613961203034B1A4F2334404443460C0F1350009E0A0F2324007EB810330601869FFF747FDC0EB4110CE
:404340002860384602B0BDE8F0812DE9F743884669468146FFF75EFF0D46044601A94046FFF758FF0F460646D9F81030D8F8102020469A1A9DE80A00C91A01EB4213002BC4
:40438000CCBF05EB0355A7EB035732463B462946FDF768FC03B0BDE8F083013910B549111469013102F1140300EB810103EB8404A342024604D253F8042B40F8042BF7E7FC
:4043C00000238A4202D242F8043BFAE710BD00F1140200694B11984210B50CDB0CDD11F01F0109D052F8234024FA01F000FA01F18C420CD100E0034602EB8303934204D9FD
:4044000053F8041D0029F9D001E0002010BD012010BD38B502FB01F4214600F055F8054618B122460021FEF738F9284638BD000038B50546002944D051F8043C0C1F002B65
:40444000B8BFE41800F0C9FB1E4A1368114613B96360146030E0A3420DD92268A018834201BF18685B681218226063600C6023E0A24203D813465A68002AF9D11868191896
:40448000A1420BD12168014458188242196013D110685268014419605A600DE002D90C232B6009E021686018824201BF106852680918216062605C602846BDE8384000F077
:4044C0008DBB38BD0C83FF1F70B5CD1C25F0030508350C2D38BF0C25002D064601DBA94202D90C23336046E000F077FB234B1C681A462146A1B10B685B1B0ED40B2B03D9BC
:404500000B60CC18CD501EE08C420BBF63684B681360636018BF0C4615E00C464968E9E7174C23681BB9304600F016FB20602946304600F011FB431C18D0C41C24F00304F8
:40454000A0420DD12560304600F048FB04F10B00231D20F00700C31A0ED05A42E25070BD211A304600F0F8FA0130EBD10C233360304600F033FB002070BD00BF0C83FF1FB1
:404580000883FF1F2DE9F0478E6882469E420C46914698463ED88A8912F4906F3AD02568096902236F1A656905EB450595FBF3F57B1C43449D4238BF1D4653050FD52946F9
:4045C000FFF782FF064698B13A462169FEF75AF8A38923F4906343F08003A38113E02A4600F0FDFA064670B921695046FFF720FF0C23CAF80030A3894FF0FF3043F0400329
:40460000A381BDE8F08726613E44266046466561ED1BA560464528BF464649463246206800F0C0FAA36800209B1BA36023681E442660BDE8F08700002DE9F04F9DB003936A
:404640008B8980461C060D4616460DD50B695BB94021FFF739FF2860286118B90C23C8F80030CDE040236B610023099320238DF82930DFF89CB130238DF82A3037463C4684
:4046800014F8013B1BB9B7EB060910D003E0252BF9D02746F3E74B46324629464046FFF771FF013000F0A780099B4B4409933B78002B00F0A08000234FF0FF3204930793DD
:4046C000059206938DF853301A930126052221784E4800F059FA671C049B38B14B4A3C46801A06FA00F018430490EFE7D90644BF20228DF853201A0744BF2B228DF853201F
:4047000022782A2A03D0079A00210A200BE0039A111D12680391002A10DA524243F00200079204900BE027463B780134303B092B03D800FB02320121F5E701B107923B7819
:404740002E2B1ED17B782A2B0AD1039B02371A1D1B680392002BB8BF4FF0FF33059310E0002319460593781C0A2407463A780130303A092A03D804FB01210123F5E703B1B4
:40478000059103223978224800F0FEF940B14023CBEB000003FA00F0049B013718430490397806221B487E1C8DF8281000F0ECF988B1194B33B9039B073323F0070308335E
:4047C000039314E003AB00932A46144B04A94046AFF3008007E003AB00932A460F4B04A9404600F093F8B0F1FF3F824603D0099B5344099342E7AB895B0601D4099801E0C4
:404800004FF0FF301DB0BDE8F08F00BF40500000465000004A50000000000000854500002DE9F04791461F460A698B6806469342B8BF1346C9F8003091F843200C46DDF8EC
:40484000208012B10133C9F800302368990642BFD9F800300233C9F80030256815F0060510D104F1190A07E00123524639463046C04701301AD00135E368D9F800209B1AE7
:404880009D42F1DB94F843302268003318BF012392060FD5E118302081F843005A1C94F845102244023382F8431003E04FF0FF30BDE8F08704F1430239463046C047013082
:4048C000F4D02268D9F80050E36802F00602042A08BF5D1B2269A3680CBF25EAE57500259342C4BF9B1AED184FF000091A344D4509D00123224639463046C0470130D5D037
:4049000009F10109F3E70020BDE8F0872DE9F04317460A7E85B06E2A984606460C460C9B01F1430E00F0AE8011D8632A22D009D8002A00F0BB80582A40F0CA8081F8452066
:40494000834955E0642A1ED0692A1CD0C0E0732A00F0B08009D86F2A2ED0702A40F0B8800A6842F020020A603EE0752A24D0782A3AD0ADE01A6801F14205111D196013686D
:4049800084F84230A8E021681A6811F0800F02D0111D196008E011F0400F02F10401196002D0B2F9003000E01368002B3CDA2D225B4284F8432037E021681A6811F0800FFE
:4049C00002D0111D196007E011F0400F02F10401196001D0138800E01368227E5C496F2A14BF0A2208221BE078225A4984F845202268186812F0800F00F104051D6003D1C9
:404A0000550601D5038800E00368D00744BF42F0200222601BB9226822F0200222601022002084F8430001E049490A226568002DA56008DB206820F0040020602BB9002DEC
:404A40007DD175460CE0002B79D07546B3FBF2F002FB1033CB5C05F8013D03460028F5D1082A0BD12368DA0708D5236962689A42DEBF302305F8013C05F1FF35C5EB0E030B
:404A800023612EE008681A6810F0800F496903D0101D1860136808E010F0400F02F104001860136801D0198000E0196000232361754616E01A68111D196015680021626871
:404AC000284600F061F808B1401B6060636804E004F1420584F8422001232361002384F84330CDF800803B4603AA21463046FFF797FE013002D14FF0FF3026E023692A4659
:404B000039463046C0470130F5D023689B0710D5002504F1190907E001234A4639463046C0470130E7D00135E368039A9B1A9D42F2DBE068039B9842B8BF184605E00B783A
:404B400004F1420584F842308AE705B0BDE8F083515000006250000038B5064C0023054608462360FCF7D6F8431C02D1236803B12B6038BD4883FF1F034613F8012B002AB7
:404B8000FBD1181A0138704710B5C9B202449042034605D01C7801308C42F8D1184610BD002010BD884210B501EB020301D8421E0BE09842FBD28118D21AD34204D013F859
:404BC000014D01F8014DF8E710BD994204D011F8014B02F8014FF8E710BD70477047F8B5074615460E4621B91146BDE8F840FFF76BBC1AB9FFF71CFC2846F8BD00F015F837
:404C000085420ED929463846FFF75EFC044650B131462A46FDF736FD31463846FFF708FC01E03046F8BD2046F8BD51F8040C0028BEBF091851F8043CC018043870470000A7
:404C4000024B58221A604FF0FF3070474883FF1F000000000000000025752025662025660000000072635F64657465637465643A31000000646973743A00000054616767A3
:404C800065642E0D0A000000256400000D0A00002A2A2A2A2A2A2A2A2A2A2A2A2A2A2A2A2A2A2A2A2A2A2A2A2A2A0D0A0000000072635F64657465637465643A300000000B
:404CC00063783A0066726F6E744275666665723A000000005461676765642E204E6F7720696E20466C6565206D6F64652E000000726561724275666665723A006C656674A5
:404D00004275666665723A0072696768744275666665723A0000000045766173697665206D6F6465206163746976617465642E0D0A00000045766173697665206D6F6465E3
:404D40002064656163746976617465642E0D0A005461676765642E204E6F7720696E206368617365206D6F64652E0D0A0000000050574D3A2025640D0A00000052616E64EA
:404D80006F6D2064656C61793A202564206D730D0A000000205100401000F0510040100000000140800000010140000F00140140000800400140000A004C014000020050C3
:404DC0000140200080000140A00E00488000430034000000CEFBFFFFCB03000001000000000000006E6600696E69747900616E0035000000CEFBFFFFCB0300000100000073
:404E00000000000000000000BC89D897B2D29C3C33A7A8D523F649393DA7F444FD0FA5329D978CCF08BA5B25436FAC6428066811002020202020202020202828282828202F
:404E40002020202020202020202020202020202020881010101010101010101010101010100404040404040404040410101010101010414141414141010101010101010174
:404E80000101010101010101010101011010101010104242424242420202020202020202020202020202020202020202101010102000000000000000000000000000000072
:404EC00000000000000000000000000000000000000000000000000000000000000000000000000000000000000000000000000000000000000000000000000000000000B2
:404F000000000000000000000000000000000000000000000000000000000000000000000000000000000000000000000000000000504F534958002E0000000000000000B0
:404F4000000000000000F03F000000000000244000000000000059400000000000408F40000000000088C34000000000006AF8400000000080842E4100000000D0126341D0
:404F80000000000084D797410000000065CDCD41000000205FA00242000000E876483742000000A2941A6D42000040E59C30A2420000901EC4BCD64200003426F56B0C43D9
:404FC0000080E03779C3414300A0D8855734764300C84E676DC1AB43003D9160E458E143408CB5781DAF154450EFE2D6E41A4B4492D54D06CFF08044F64AE1C7022DB54403
:40500000B49DD9794378EA4405000000190000007D000000000000000080E03779C34143176E05B5B5B89346F5F93FE9034F384D321D30F94877825A3CBF737FDD4F1575CA
:40504000232D302B2000686C4C00656667454647003031323334353637383941424344454600303132333435363738396162636465660000F8B500BFF8BC08BC9E467047BE
:405080004D000000910D0000F8B500BFF8BC08BC9E46704729000000A8500000C880FF1FE8000000A00100000000000000000000FFFF030000000000000000000000344001
:4050C0000000000000002E409A9999999999C93F0000000000C05F405083FF1F0000E02EC05D00001800000000366E0100000000000000000000000000000000000000006B
:40510000000000000000000000000000CE4D000000000000000000000000000000000000000000000000000000000000000000000000000000000000000000000000000054
:405140000000000000000000000000000C81FF1F304E0000374F0000455000004550000045500000455000004550000045500000455000004550000045500000FFFFFFFF47
:40518000FFFFFFFFFFFFFFFFFFFF000000000000000000000000000000000000000000000000000000000000000000000000000000000000000000000000000000000000F9
:4051C00000000000000000000000000000000000000000000000000000000000000000000000000000000000000000000000000000000000000000000000000000000000AF
:40520000000000000000000000000000000000000000000000000000000000000000000000000000000000000000000000000000000000000000000000000000000000006E
:40524000000000000000000000000000000000000000000000000000000000000000000000000000000000000000000000000000000000000000000000000000000000002E
:4052800000000000000000000000000000000000000000000000000000000000000000000000000000000000000000000000000000000000000000000000000000000000EE
:020000040003F7
:0200000480007A
:40000000065200400B64004006650040120001403A010140710201404E03014056040140490501404B06014053070140150901406D0A01404C0B01405D0C0140410D01407A
:400040005E0E01403B0F0140661401404B1501405E16014058170140711801404D1901400A1B01400D400140164101400C42014004430140044401400345014003460140D7
:4000800004470140084801400D490140084C0140064D014008500140025101400455081409801901210160107E017F018172830F84728572867287388C0D8D0F8F0F840D00
:4000C000850F863887388838890F0302060107010E0213021E02230130023101340137023B083E013F41580459045C325F0100800320042406400A020C400E040F501601AE
:40010000172A1B111C061D011F1822822310246025042610270129012C802F1833013480372839013A043C403D083E023F10448045284D014F5056045E2064C067806C045C
:400140006D406F107602772A812187488801C075C2F1C4F0CAE1CC71CEF3D0E0D230D620E21000090232049F05F309F30C020E4511101364181419421A2A1B192521271A0E
:40018000289F2C802D80300731703260330C34183503368037803E043F044015410642034402450C460E480549FF4AFF4BFF4C624DA04EF04F41500C580459045A045C23B1
:4001C0005D025F016640670269106A306B106D106E106F128014822A8544872A880289678A458D028F159409956796B2A41FA81FA921ABCAB080B107B207B360B460B5804A
:40020000B618B718BE10BF40C064C101C205C402C5CEC803C9FFCAFFCBFFCC62CDA0CEF0CF41D00CD401D804D904DA04DB04DC01DD11DF01E640E702E910EA30EB10ED10D3
:40024000EE10EF1200100380044806410B200C040D040E04111415401710181419011B801C401D081E041F40200221062344240226512720288829012E402F2030023201E7
:4002800033043611382039083B403D2840044101420144204760484249244C014F185740598A5A105D015E0278017B8087108A808D0290089140960697809B109E41A282B8
:4002C000A311A4C0A508A720C0BAC244C4C6CA54CCA2CE6ED07DD23CD60FE205E440E608002F02D004C3050108F309010A0C0ED3103C110112C3144117021CFF2008240491
:40030000280C2C822F0230C03101320F34203502361C3A083E103F104026410342014405460E470C481449FF4AFF4BFF4C624DA04EF04F41500C56025712580459045A04DA
:400340005B045C115D105F016640670269106A306B106D106E106F128120851089308F0F917C93039505990A9D4F9F30A10FA570A70FAD7FB13CB540B703BB02BF10D602FC
:40038000D712D904DB04DC20DD20DF010090012002A00A810B2010A9181019021A06208021212404274229402D012F22300231043615374039143D403E2A419448014A0874
:4003C000500453405A045C045D405E80680269146D286E4070A8762A7718871291019324942095169653971098C599049C209DA09F44A001A102A276A355A514A810AA2432
:40040000AB20ACC8AE40B508C00FC20DC40FCAD8CCF3CEF6D00ED20CD642E210E89000E70218041C050106E1083C0AC20C100D01126315011604180420FF240828183080BA
:4004400032383301341F365838023AA056025711580459045B045C025F018108847F85FF8867890C8A188D1F8E238FE0901C91C39262940497E3981C99F39A619B0C9E04C7
:40048000A010A141A408A504A818A982AD3CAFC3B01FB1C0B310B438B50FB640B72CB880BA22BB20BF04D418D804D904DB04DC01DD10DF0100800120022005140602074078
:4004C00008800A880B200E880F2010A81680171819401A881D101E221F212190221123102608284429802A042E802F0231023218342036103704388039083A113D403E0411
:4005000059025F1061206302641066046C106D406E046F047404761584018E02900893A494209528968198C499229A029B5A9C209D409F04A0E8A122A246A355A580A6894D
:40054000A722A980B610C0F7C27FC47ECA0FCC47CE5FD621D80CE608EA0487018F0191029308944095089742984099029B049C019E189F20A010A321A504A610AB10B72898
:40058000E410EE1002800428050106130B020E160F02101611081229142816151C401E0923042A022E80301B310432073302348035083660370138803A0A3E103F544040CB
:4005C000410545D046024701481649FF4AFF4BFF4DA04F0450185280580459045A045B045C635D665F01604062C06440654066C068C06AC06CC06EC083128432860C8701C3
:40060000890C8B12930194079510961897069A209B109E0DA407A638A704A910AB0AAE30AF0CB23CB310B403B50EB701B820BA08BB20BE10BF44C002C640C9FFCA07CBFFCA
:40064000CC40CD20CEF0CF05D008D804D904DA04DC11DD01DF01E040E1A8E240E32001880240050409400A600C280E200F021120120215401704180419C81A501C201D2474
:400680002142220623082580271429012C082D402F213201340137243A183B403C203D083F024102430245204B814F0251085240534054205720710188408A048DC09102FC
:4006C00092229308944495089650970199029C019D40A150A508A702AB40B320B510B708C02DC2EDC4A3CA71CCE1CEEED021D208E210E894EA400404130716061704240192
:4007000027012B023004310132023401350237043E103F514006464049FF4A074BFF4C404D204EF04F0550085405580459045A045B045C065D635F01604061A86240632094
:40074000881F89108A608C808D20905292249303941F9514962099109B0C9D099E2D9F10A240A418A624A90CAB11AD1CAF02B004B11FB278B320B403B680B820BA08BE517C
:40078000BF04C034C102C50CC60EC70BC815C9FFCAFFCBFFCEF0CF44D00CD401D804D904DA04DB04DC33DD33DF01E6C0EA40EB0200500504088A09400A500D081070142005
:4007C000150818101AA01B501D141E802205252026802780280A2E012F68304831403211340137083A103B80409848204F20500853405550561058105A895C045E805F01DC
:400800008120838086808B048C208F0891029902A508A702B020B380B540C023C22DC42CCA6CCCCFCE0CD007D220D6DFE080E240E44006080E1C145C1603170118611A0EB5
:40084000262328612A162F013060320F341A350138023A283E014004470449FF4A074BFF4C404D204EF04F055008580459045A045B045C605F01604061A86240632082408F
:40088000841085538704880C89538A118B0C8C098D038E108F4492039308941C96029A40A020A410A520A60CA745A814A90AAB54B01FB340B420B50FB640B730B980BB2027
:4008C000BE50BF04C023C106C5E0C60CC70BC816C9FFCAFFCBFFCEF0CF44D00CD401D804D904DA04DB04DF01E6C0EA40EB0200040301040E051007010A140D110E90102025
:4009000011201308150116041704184019101A1C1D801E8821102510260827052B022C202E10310837013D203E043F8040404510470848204D014E045004560457C05C2073
:400940005D015E4869406C0189028D808E48C0F5C276C476CA68CC82CE70D061D220D6F0E080E2100F011208130214011A042A072B012F023004310232023301340836018D
:400980003F054060410545D046024701481649FF4AFF4BFF4DA04F04501852805405580459045A045B045C045D445F01604062C06440654066C068C06AC06CC06EC0822CFA
:4009C0008643881089208B458CAC8E039153930494C1960E99539B0C9F08A208A503A744A8C1AA26AD0AAF54B00FB130B2C0B30FB410B540B62AB808B902BA82BB08BE14BD
:400A0000BF10C023C105C5EEC6C0C70BC81BC9FFCAFFCBFFCEF0CF44D00CD401D804D904DA04DB04DC22DD22DF01E6C0EA40EB0204600620074009020A240E2010081640BD
:400A4000172019601AA41C421D081E0A1F0121012204276829202A802D402F2133013603376038803E204620472049214B804C104D014E02504853405604572059415A08A8
:400A80005D915E086F01710282C0840185818610870889108B2095409A609E049F61A508A601A808AC80AE01AF09B080B504C0F0C22EC452CA5CCCB1CE28D060D21CD6FB9A
:400AC000E802EA01EE02000902100603070208140F01130216201A201C0C1E11201028102A0C2C1C2E022F013101321F362037023A023B203E403F414003460449FF4A07E9
:400B00004BFF4C404D204EF04F0550085418580459045A045B045C125D225F01604061A86240632080198262841887028A268C198E648F01946796189A019C019F02A408E4
:400B4000A701A87FAC10B038B440B501B61FB702B820BA82BB08BF50C045C106C5E0C6BCC80EC9FFCAFFCBFFCEF0CF44D00CD418D804D904DA04DB04DD01DF01E6C0EA4023
:400B8000EB0200080182020805040604074008400A200B040E220F08101012011310154016401720188019821B101D441F0220042104228023102440266027082B102F01D7
:400BC0003180370138083B803D083F804080450848895140521056605A025F0260046280640865408048814086108A4090089222938694809508960198509A019B029D809F
:400C0000A005A184A218A344A620A702A904AA01AE84B504C07FC2E7C4D7CA12CC88CE5AD041D20CD681D83CE003E220E804EC40EE20040A0614091C0B020E08111414139B
:400C4000150C160C17111C201E051F032040241325102604280329102A042B0C2D092F103030311F320F344038023A083E104053420649FF4AFF4BFF4F01501854185804EF
:400C800059045A045B045C115D355F016040624064406540668068806A806C806E8080018202841087FF89308BC38D558E018FA09201953097C998049A089C0CA00CA1509D
:400CC000A3AEA804AA08B002B30FB401B5F0B61CBAC0BB08BE10C056C202C5ECC620C80BC9FFCAFFCBFFCD83CE03CF01D018D283D403D604D804D904DA04DB04DC55DD5543
:400D0000DF01E040E240E440E540E680E880EA80EC80EE8000060302058006200A090B400E200F021008130215021724180419201A011B421E241F092214244027402B40C1
:400D40002D802F2932043745380439503C203E204004461049054B604D204F4052105310584059055A205D0262026709680869506B02734083208701910293099440950832
:400D80009742984099029B049C019E189F20A010A321A612A904B202C0ADC2ABC47ACA71CCD2CE2ED044D23CD68FD831EE208801A401AB04AC01AF08B104B204B608E810BC
:400DC000EC800C400F80302033083402371039105B408F40C2A0CCF0CE10D48001440B880E42322437808390851486048F40951098409C029F10A340A420A708C050C2F085
:400E0000CC70E2A0E440E6108F0892409C02A420A620A708A940AF44B040B601E810EC3092409C02A420A62052087F01D404DE04A608B701E8028F01AA08E40893019901C9
:400E4000B501EC0288029C029E20A620AA20B020B640E82006200D405B408140834086209E20A620C020C280D480E080E6C054205F01610193019901D402D601D802010264
:400E80008902B020C008E201EC04004F080F0A070C4A0E49103F1A171C2A00AB01EA0000411000000F3CF0821CBFE30000000004F3000C00FF080000821800000000F30356
:400EC00008040040043C00810CA70018C30000001C400F1F2C20C08000802808000000105406020003E0000C12FFFFFF62A0F0410C0000000000021104040404333300015E
:400F00000000000000004002001030100010101200000000000000000000000000000000FF0000000000000000101000100000009400009F9F00940000000000AA010100AC
:400F400001000000A00101000100000001000000000000000100000101000100000000000000000000000000000000000000000000000000000000000000000000000000C8
:400F80000000000000000000000000000000000000000000000000000000000000000000000000000000000000000000000000000000000000000000000000000000000031
:400FC00000000000000000000000000000000000000000000000000000000000000000000000000000000000000000000000000000000000000000000000000000000000F1
:4010000000000000000000000000000000000000000000000000000000000000000000000000000000000000000000000000000000000000000000000000000000000000B0
:401040000000000000000000000000000000000000000000000000000000000000000000000000000000000000000000000000000000000000000000000000000000000070
:0200000490006A
:0400000000004005B7
:0200000490105A
:04000000BC90ACAF55
:0200000490303A
:0200000059FAAB
:0200000490402A
:4000000000000000000000000000000000000000000000000000000000000000000000000000000000000000000000000000000000000000000000000000000000000000C0
:400040000000000000000000000000000000000000000000000000000000000000000000000000000000000000000000000000000000000000000000000000000000000080
:400080000000000000000000000000000000000000000000000000000000000000000000000000000000000000000000000000000000000000000000000000000000000040
:4000C0000000000000000000000000000000000000000000000000000000000000000000000000000000000000000000000000000000000000000000000000000000000000
:0200000490501A
:0C00000000012E12306900012E368A63C8
:00000001FF